{
  "_format": "hh-sol-artifact-1",
  "contractName": "HashRush",
  "sourceName": "contracts/HashRush.sol",
  "abi": [
    {
      "inputs": [
        {
          "internalType": "address",
          "name": "_usdcToken",
          "type": "address"
        }
      ],
      "stateMutability": "nonpayable",
      "type": "constructor"
    },
    {
      "inputs": [
        {
          "internalType": "address",
          "name": "owner",
          "type": "address"
        }
      ],
      "name": "OwnableInvalidOwner",
      "type": "error"
    },
    {
      "inputs": [
        {
          "internalType": "address",
          "name": "account",
          "type": "address"
        }
      ],
      "name": "OwnableUnauthorizedAccount",
      "type": "error"
    },
    {
      "inputs": [],
      "name": "ReentrancyGuardReentrantCall",
      "type": "error"
    },
    {
      "anonymous": false,
      "inputs": [
        {
          "indexed": true,
          "internalType": "address",
          "name": "funder",
          "type": "address"
        },
        {
          "indexed": false,
          "internalType": "uint256",
          "name": "amount",
          "type": "uint256"
        }
      ],
      "name": "Funded",
      "type": "event"
    },
    {
      "anonymous": false,
      "inputs": [
        {
          "indexed": true,
          "internalType": "address",
          "name": "user",
          "type": "address"
        },
        {
          "indexed": false,
          "internalType": "string",
          "name": "itemId",
          "type": "string"
        },
        {
          "indexed": false,
          "internalType": "uint256",
          "name": "amount",
          "type": "uint256"
        },
        {
          "indexed": false,
          "internalType": "uint256",
          "name": "timestamp",
          "type": "uint256"
        }
      ],
      "name": "HardwarePurchased",
      "type": "event"
    },
    {
      "anonymous": false,
      "inputs": [
        {
          "indexed": true,
          "internalType": "address",
          "name": "previousOwner",
          "type": "address"
        },
        {
          "indexed": true,
          "internalType": "address",
          "name": "newOwner",
          "type": "address"
        }
      ],
      "name": "OwnershipTransferred",
      "type": "event"
    },
    {
      "anonymous": false,
      "inputs": [
        {
          "indexed": true,
          "internalType": "address",
          "name": "user",
          "type": "address"
        },
        {
          "indexed": false,
          "internalType": "uint256",
          "name": "amount",
          "type": "uint256"
        },
        {
          "indexed": false,
          "internalType": "uint256",
          "name": "totalClaimed",
          "type": "uint256"
        },
        {
          "indexed": false,
          "internalType": "uint256",
          "name": "timestamp",
          "type": "uint256"
        }
      ],
      "name": "PointsClaimed",
      "type": "event"
    },
    {
      "anonymous": false,
      "inputs": [
        {
          "indexed": false,
          "internalType": "uint256",
          "name": "oldAmount",
          "type": "uint256"
        },
        {
          "indexed": false,
          "internalType": "uint256",
          "name": "newAmount",
          "type": "uint256"
        }
      ],
      "name": "RewardAmountUpdated",
      "type": "event"
    },
    {
      "anonymous": false,
      "inputs": [
        {
          "indexed": true,
          "internalType": "address",
          "name": "user",
          "type": "address"
        },
        {
          "indexed": false,
          "internalType": "uint256",
          "name": "hpAmount",
          "type": "uint256"
        },
        {
          "indexed": false,
          "internalType": "uint256",
          "name": "usdcAmount",
          "type": "uint256"
        },
        {
          "indexed": false,
          "internalType": "uint256",
          "name": "timestamp",
          "type": "uint256"
        }
      ],
      "name": "UsdcRedeemed",
      "type": "event"
    },
    {
      "anonymous": false,
      "inputs": [
        {
          "indexed": true,
          "internalType": "address",
          "name": "owner",
          "type": "address"
        },
        {
          "indexed": false,
          "internalType": "uint256",
          "name": "amount",
          "type": "uint256"
        }
      ],
      "name": "Withdrawn",
      "type": "event"
    },
    {
      "inputs": [
        {
          "internalType": "string",
          "name": "itemId",
          "type": "string"
        }
      ],
      "name": "buyHardware",
      "outputs": [],
      "stateMutability": "payable",
      "type": "function"
    },
    {
      "inputs": [
        {
          "internalType": "address",
          "name": "user",
          "type": "address"
        }
      ],
      "name": "canRedeem",
      "outputs": [
        {
          "internalType": "bool",
          "name": "",
          "type": "bool"
        },
        {
          "internalType": "string",
          "name": "",
          "type": "string"
        }
      ],
      "stateMutability": "view",
      "type": "function"
    },
    {
      "inputs": [
        {
          "internalType": "address",
          "name": "",
          "type": "address"
        }
      ],
      "name": "claimCount",
      "outputs": [
        {
          "internalType": "uint256",
          "name": "",
          "type": "uint256"
        }
      ],
      "stateMutability": "view",
      "type": "function"
    },
    {
      "inputs": [
        {
          "internalType": "uint256",
          "name": "amount",
          "type": "uint256"
        }
      ],
      "name": "claimPoints",
      "outputs": [],
      "stateMutability": "nonpayable",
      "type": "function"
    },
    {
      "inputs": [
        {
          "internalType": "string",
          "name": "itemId",
          "type": "string"
        }
      ],
      "name": "getHardwarePrice",
      "outputs": [
        {
          "internalType": "uint256",
          "name": "",
          "type": "uint256"
        }
      ],
      "stateMutability": "view",
      "type": "function"
    },
    {
      "inputs": [],
      "name": "getPoolBalance",
      "outputs": [
        {
          "internalType": "uint256",
          "name": "",
          "type": "uint256"
        }
      ],
      "stateMutability": "view",
      "type": "function"
    },
    {
      "inputs": [
        {
          "internalType": "address",
          "name": "user",
          "type": "address"
        }
      ],
      "name": "getRemainingCooldown",
      "outputs": [
        {
          "internalType": "uint256",
          "name": "",
          "type": "uint256"
        }
      ],
      "stateMutability": "view",
      "type": "function"
    },
    {
      "inputs": [
        {
          "internalType": "address",
          "name": "user",
          "type": "address"
        }
      ],
      "name": "getUserStats",
      "outputs": [
        {
          "internalType": "uint256",
          "name": "hpClaimed",
          "type": "uint256"
        },
        {
          "internalType": "uint256",
          "name": "usdcClaimed",
          "type": "uint256"
        },
        {
          "internalType": "uint256",
          "name": "hardwareSpent",
          "type": "uint256"
        },
        {
          "internalType": "uint256",
          "name": "claims",
          "type": "uint256"
        }
      ],
      "stateMutability": "view",
      "type": "function"
    },
    {
      "inputs": [
        {
          "internalType": "string",
          "name": "",
          "type": "string"
        }
      ],
      "name": "hardwarePrices",
      "outputs": [
        {
          "internalType": "uint256",
          "name": "",
          "type": "uint256"
        }
      ],
      "stateMutability": "view",
      "type": "function"
    },
    {
      "inputs": [
        {
          "internalType": "address",
          "name": "",
          "type": "address"
        }
      ],
      "name": "lastRedeemTime",
      "outputs": [
        {
          "internalType": "uint256",
          "name": "",
          "type": "uint256"
        }
      ],
      "stateMutability": "view",
      "type": "function"
    },
    {
      "inputs": [],
      "name": "minHpRequired",
      "outputs": [
        {
          "internalType": "uint256",
          "name": "",
          "type": "uint256"
        }
      ],
      "stateMutability": "view",
      "type": "function"
    },
    {
      "inputs": [],
      "name": "owner",
      "outputs": [
        {
          "internalType": "address",
          "name": "",
          "type": "address"
        }
      ],
      "stateMutability": "view",
      "type": "function"
    },
    {
      "inputs": [
        {
          "internalType": "uint256",
          "name": "hpAmount",
          "type": "uint256"
        }
      ],
      "name": "redeem",
      "outputs": [],
      "stateMutability": "nonpayable",
      "type": "function"
    },
    {
      "inputs": [],
      "name": "redeemCooldown",
      "outputs": [
        {
          "internalType": "uint256",
          "name": "",
          "type": "uint256"
        }
      ],
      "stateMutability": "view",
      "type": "function"
    },
    {
      "inputs": [
        {
          "internalType": "uint256",
          "name": "hpAmount",
          "type": "uint256"
        }
      ],
      "name": "redeemUsdc",
      "outputs": [],
      "stateMutability": "nonpayable",
      "type": "function"
    },
    {
      "inputs": [],
      "name": "renounceOwnership",
      "outputs": [],
      "stateMutability": "nonpayable",
      "type": "function"
    },
    {
      "inputs": [],
      "name": "rewardAmount",
      "outputs": [
        {
          "internalType": "uint256",
          "name": "",
          "type": "uint256"
        }
      ],
      "stateMutability": "view",
      "type": "function"
    },
    {
      "inputs": [
        {
          "internalType": "uint256",
          "name": "_cooldown",
          "type": "uint256"
        }
      ],
      "name": "setCooldown",
      "outputs": [],
      "stateMutability": "nonpayable",
      "type": "function"
    },
    {
      "inputs": [
        {
          "internalType": "string",
          "name": "itemId",
          "type": "string"
        },
        {
          "internalType": "uint256",
          "name": "price",
          "type": "uint256"
        }
      ],
      "name": "setHardwarePrice",
      "outputs": [],
      "stateMutability": "nonpayable",
      "type": "function"
    },
    {
      "inputs": [
        {
          "internalType": "uint256",
          "name": "_minHp",
          "type": "uint256"
        }
      ],
      "name": "setMinHpRequired",
      "outputs": [],
      "stateMutability": "nonpayable",
      "type": "function"
    },
    {
      "inputs": [
        {
          "internalType": "uint256",
          "name": "_amount",
          "type": "uint256"
        }
      ],
      "name": "setRewardAmount",
      "outputs": [],
      "stateMutability": "nonpayable",
      "type": "function"
    },
    {
      "inputs": [
        {
          "internalType": "address",
          "name": "",
          "type": "address"
        }
      ],
      "name": "totalHardwareSpent",
      "outputs": [
        {
          "internalType": "uint256",
          "name": "",
          "type": "uint256"
        }
      ],
      "stateMutability": "view",
      "type": "function"
    },
    {
      "inputs": [
        {
          "internalType": "address",
          "name": "",
          "type": "address"
        }
      ],
      "name": "totalHpClaimed",
      "outputs": [
        {
          "internalType": "uint256",
          "name": "",
          "type": "uint256"
        }
      ],
      "stateMutability": "view",
      "type": "function"
    },
    {
      "inputs": [
        {
          "internalType": "address",
          "name": "",
          "type": "address"
        }
      ],
      "name": "totalUsdcClaimed",
      "outputs": [
        {
          "internalType": "uint256",
          "name": "",
          "type": "uint256"
        }
      ],
      "stateMutability": "view",
      "type": "function"
    },
    {
      "inputs": [
        {
          "internalType": "address",
          "name": "newOwner",
          "type": "address"
        }
      ],
      "name": "transferOwnership",
      "outputs": [],
      "stateMutability": "nonpayable",
      "type": "function"
    },
    {
      "inputs": [],
      "name": "usdcToken",
      "outputs": [
        {
          "internalType": "contract IERC20",
          "name": "",
          "type": "address"
        }
      ],
      "stateMutability": "view",
      "type": "function"
    },
    {
      "inputs": [],
      "name": "withdrawETH",
      "outputs": [],
      "stateMutability": "nonpayable",
      "type": "function"
    },
    {
      "inputs": [
        {
          "internalType": "uint256",
          "name": "amount",
          "type": "uint256"
        }
      ],
      "name": "withdrawUSDC",
      "outputs": [],
      "stateMutability": "nonpayable",
      "type": "function"
    },
    {
      "stateMutability": "payable",
      "type": "receive"
    }
  ],
  "bytecode": "0x60a0604052620186a06002556103e86003556201518060045534801561002457600080fd5b5060405161183038038061183083398101604081905261004391610180565b338061006957604051631e4fbdf760e01b81526000600482015260240160405180910390fd5b61007281610130565b50600180556001600160a01b0316608052604080516639ba30b93a32b960c91b8152600a6007808301829052835192839003602790810184206601c6bf52634000905564747572626f60d81b845260058401839052845193849003602501842066038d7ea4c680009055636661726d60e01b8452600484018390528451938490036024018420660aa87bee5380009055667175616e74756d60c81b84529083019190915291519081900390910190206611c37937e0800090556101b0565b600080546001600160a01b038381166001600160a01b0319831681178455604051919092169283917f8be0079c531659141344cd1fd0a4f28419497f9722a3daafe3b4186f6b6457e09190a35050565b60006020828403121561019257600080fd5b81516001600160a01b03811681146101a957600080fd5b9392505050565b60805161163b6101f56000396000818161020e015281816106a70152818161094701528181610a6001528181610bf801528181610d130152610dcf015261163b6000f3fe6080604052600436106101bb5760003560e01c80638da5cb5b116100ec578063db006a751161008a578063e6f3e00411610064578063e6f3e004146105c4578063e78f95a8146105e4578063f2fde38b146105f7578063f7b2a7be1461061757600080fd5b8063db006a751461056f578063db81f99b1461058f578063e086e5ec146105af57600080fd5b8063abd70aa2116100c6578063abd70aa2146104f7578063c06d74641461050c578063c1ce34381461052c578063ce0ada681461054257600080fd5b80638da5cb5b14610499578063a54d26dd146104b7578063a8a65a78146104d757600080fd5b80634fc3f41a1161015957806369c12cb71161013357806369c12cb7146104145780636ed081b614610441578063715018a61461046e5780637b38b34d1461048357600080fd5b80634fc3f41a1461039a5780635fcd4a5d146103ba57806360c02ed2146103e757600080fd5b80633ac795de116101955780633ac795de146102a95780633daf217f146102cb5780634523fc04146102eb5780634e43603a1461032357600080fd5b806311eac855146101fc578063151535b91461024d5780632b59cc341461027b57600080fd5b366101f75760405134815233907f5af8184bef8e4b45eb9f6ed7734d04da38ced226495548f46e0c8ff8d7d9a5249060200160405180910390a2005b600080fd5b34801561020857600080fd5b506102307f000000000000000000000000000000000000000000000000000000000000000081565b6040516001600160a01b0390911681526020015b60405180910390f35b34801561025957600080fd5b5061026d6102683660046112ff565b61062d565b60405161024492919061132f565b34801561028757600080fd5b5061029b6102963660046113d0565b610771565b604051908152602001610244565b3480156102b557600080fd5b506102c96102c4366004611412565b61079d565b005b3480156102d757600080fd5b506102c96102e6366004611412565b610881565b3480156102f757600080fd5b5061029b610306366004611441565b8051602081830181018051600a8252928201919093012091525481565b34801561032f57600080fd5b5061037a61033e3660046112ff565b6001600160a01b031660009081526007602090815260408083205460068352818420546009845282852054600890945291909320549293909290565b604080519485526020850193909352918301526060820152608001610244565b3480156103a657600080fd5b506102c96103b5366004611412565b610b69565b3480156103c657600080fd5b5061029b6103d53660046112ff565b60096020526000908152604090205481565b3480156103f357600080fd5b5061029b6104023660046112ff565b60076020526000908152604090205481565b34801561042057600080fd5b5061029b61042f3660046112ff565b60086020526000908152604090205481565b34801561044d57600080fd5b5061029b61045c3660046112ff565b60066020526000908152604090205481565b34801561047a57600080fd5b506102c9610b76565b34801561048f57600080fd5b5061029b60035481565b3480156104a557600080fd5b506000546001600160a01b0316610230565b3480156104c357600080fd5b506102c96104d2366004611412565b610b8a565b3480156104e357600080fd5b506102c96104f2366004611412565b610b97565b34801561050357600080fd5b5061029b610be0565b34801561051857600080fd5b506102c96105273660046114f2565b610c70565b34801561053857600080fd5b5061029b60045481565b34801561054e57600080fd5b5061029b61055d3660046112ff565b60056020526000908152604090205481565b34801561057b57600080fd5b506102c961058a366004611412565b610ca0565b34801561059b57600080fd5b506102c96105aa366004611412565b610cf4565b3480156105bb57600080fd5b506102c9610f12565b3480156105d057600080fd5b5061029b6105df3660046112ff565b610ffa565b6102c96105f23660046113d0565b611060565b34801561060357600080fd5b506102c96106123660046112ff565b61121d565b34801561062357600080fd5b5061029b60025481565b6004546001600160a01b03821660009081526005602052604081205490916060916106589190611554565b42101561068f57505060408051808201909152600f81526e436f6f6c646f776e2061637469766560881b6020820152600092909150565b6002546040516370a0823160e01b81523060048201527f00000000000000000000000000000000000000000000000000000000000000006001600160a01b0316906370a0823190602401602060405180830381865afa1580156106f6573d6000803e3d6000fd5b505050506040513d601f19601f8201168201806040525081019061071a9190611567565b101561074b57505060408051808201909152600a815269506f6f6c20656d70747960b01b6020820152600092909150565b5050604080518082019091526005815264526561647960d81b6020820152600192909150565b6000600a8383604051610785929190611580565b90815260200160405180910390205490505b92915050565b600081116107e75760405162461bcd60e51b81526020600482015260126024820152710416d6f756e74206d757374206265203e20360741b60448201526064015b60405180910390fd5b3360009081526007602052604081208054839290610806908490611554565b909155505033600090815260086020526040812080546001929061082b908490611554565b90915550503360008181526007602090815260409182902054825185815291820152428183015290517f380f3fa4f2c28f19c53cf86e5bbaa14a82d50d325c8e43853a34faae63abf9e09181900360600190a250565b610889611258565b6003548110156108cd5760405162461bcd60e51b815260206004820152600f60248201526e0496e73756666696369656e7420485608c1b60448201526064016107de565b600454336000908152600560205260409020546108ea9190611554565b42101561092f5760405162461bcd60e51b815260206004820152601360248201527210dbdbdb191bdddb881b9bdd081c185cdcd959606a1b60448201526064016107de565b6002546040516370a0823160e01b81523060048201527f00000000000000000000000000000000000000000000000000000000000000006001600160a01b0316906370a0823190602401602060405180830381865afa158015610996573d6000803e3d6000fd5b505050506040513d601f19601f820116820180604052508101906109ba9190611567565b1015610a085760405162461bcd60e51b815260206004820152601d60248201527f496e73756666696369656e7420636f6e74726163742062616c616e636500000060448201526064016107de565b33600090815260056020908152604080832042905560025460069092528220805491929091610a38908490611554565b909155505060025460405163a9059cbb60e01b815233600482015260248101919091526000907f00000000000000000000000000000000000000000000000000000000000000006001600160a01b03169063a9059cbb906044016020604051808303816000875af1158015610ab1573d6000803e3d6000fd5b505050506040513d601f19601f82011682018060405250810190610ad59190611590565b905080610b165760405162461bcd60e51b815260206004820152600f60248201526e151c985b9cd9995c8819985a5b1959608a1b60448201526064016107de565b600254604080518481526020810192909252429082015233907f61cd8ad2b4b5def50fc473973dd053b5249f25ab27d7c9aba9b671daba6685aa9060600160405180910390a250610b6660018055565b50565b610b71611282565b600455565b610b7e611282565b610b8860006112af565b565b610b92611282565b600355565b610b9f611282565b60025460408051918252602082018390527ff0d37c3ae852021ac329281f604b658691cbfa6b9e9c22909f06b64a8ce87c94910160405180910390a1600255565b6040516370a0823160e01b81523060048201526000907f00000000000000000000000000000000000000000000000000000000000000006001600160a01b0316906370a0823190602401602060405180830381865afa158015610c47573d6000803e3d6000fd5b505050506040513d601f19601f82011682018060405250810190610c6b9190611567565b905090565b610c78611282565b80600a8484604051610c8b929190611580565b90815260405190819003602001902055505050565b604051633daf217f60e01b8152600481018290523090633daf217f90602401600060405180830381600087803b158015610cd957600080fd5b505af1158015610ced573d6000803e3d6000fd5b5050505050565b610cfc611282565b6040516370a0823160e01b815230600482015281907f00000000000000000000000000000000000000000000000000000000000000006001600160a01b0316906370a0823190602401602060405180830381865afa158015610d62573d6000803e3d6000fd5b505050506040513d601f19601f82011682018060405250810190610d869190611567565b1015610dcb5760405162461bcd60e51b8152602060048201526014602482015273496e73756666696369656e742062616c616e636560601b60448201526064016107de565b60007f00000000000000000000000000000000000000000000000000000000000000006001600160a01b031663a9059cbb610e0e6000546001600160a01b031690565b6040516001600160e01b031960e084901b1681526001600160a01b039091166004820152602481018590526044016020604051808303816000875af1158015610e5b573d6000803e3d6000fd5b505050506040513d601f19601f82011682018060405250810190610e7f9190611590565b905080610ec05760405162461bcd60e51b815260206004820152600f60248201526e15da5d1a191c985dc819985a5b1959608a1b60448201526064016107de565b6000546001600160a01b03166001600160a01b03167f7084f5476618d8e60b11ef0d7d3f06914655adb8793e28ff7f018d4c76d505d583604051610f0691815260200190565b60405180910390a25050565b610f1a611282565b4780610f5d5760405162461bcd60e51b81526020600482015260126024820152714e6f2045544820746f20776974686472617760701b60448201526064016107de565b600080546040516001600160a01b039091169083908381818185875af1925050503d8060008114610faa576040519150601f19603f3d011682016040523d82523d6000602084013e610faf565b606091505b5050905080610ff65760405162461bcd60e51b8152602060048201526013602482015272115512081dda5d1a191c985dc819985a5b1959606a1b60448201526064016107de565b5050565b6004546001600160a01b038216600090815260056020526040812054909161102191611554565b421061102f57506000919050565b6004546001600160a01b038316600090815260056020526040902054429161105691611554565b61079791906115b2565b611068611258565b6000600a838360405161107c929190611580565b9081526020016040518091039020549050600081116110cc5760405162461bcd60e51b815260206004820152600c60248201526b496e76616c6964206974656d60a01b60448201526064016107de565b8034101561110f5760405162461bcd60e51b815260206004820152601060248201526f092dce6eaccccd2c6d2cadce8408aa8960831b60448201526064016107de565b336000908152600960205260408120805483929061112e908490611554565b9091555050348110156111cc5760003361114883346115b2565b604051600081818185875af1925050503d8060008114611184576040519150601f19603f3d011682016040523d82523d6000602084013e611189565b606091505b50509050806111ca5760405162461bcd60e51b815260206004820152600d60248201526c1499599d5b990819985a5b1959609a1b60448201526064016107de565b505b336001600160a01b03167f8e8b9ccdd7ae6c9073a9a8a9b3100345c122515e54d27cb8c84c17870ca7b3938484844260405161120b94939291906115c5565b60405180910390a250610ff660018055565b611225611282565b6001600160a01b03811661124f57604051631e4fbdf760e01b8152600060048201526024016107de565b610b66816112af565b60026001540361127b57604051633ee5aeb560e01b815260040160405180910390fd5b6002600155565b6000546001600160a01b03163314610b885760405163118cdaa760e01b81523360048201526024016107de565b600080546001600160a01b038381166001600160a01b0319831681178455604051919092169283917f8be0079c531659141344cd1fd0a4f28419497f9722a3daafe3b4186f6b6457e09190a35050565b60006020828403121561131157600080fd5b81356001600160a01b038116811461132857600080fd5b9392505050565b821515815260006020604081840152835180604085015260005b8181101561136557858101830151858201606001528201611349565b506000606082860101526060601f19601f830116850101925050509392505050565b60008083601f84011261139957600080fd5b50813567ffffffffffffffff8111156113b157600080fd5b6020830191508360208285010111156113c957600080fd5b9250929050565b600080602083850312156113e357600080fd5b823567ffffffffffffffff8111156113fa57600080fd5b61140685828601611387565b90969095509350505050565b60006020828403121561142457600080fd5b5035919050565b634e487b7160e01b600052604160045260246000fd5b60006020828403121561145357600080fd5b813567ffffffffffffffff8082111561146b57600080fd5b818401915084601f83011261147f57600080fd5b8135818111156114915761149161142b565b604051601f8201601f19908116603f011681019083821181831017156114b9576114b961142b565b816040528281528760208487010111156114d257600080fd5b826020860160208301376000928101602001929092525095945050505050565b60008060006040848603121561150757600080fd5b833567ffffffffffffffff81111561151e57600080fd5b61152a86828701611387565b909790965060209590950135949350505050565b634e487b7160e01b600052601160045260246000fd5b808201808211156107975761079761153e565b60006020828403121561157957600080fd5b5051919050565b8183823760009101908152919050565b6000602082840312156115a257600080fd5b8151801515811461132857600080fd5b818103818111156107975761079761153e565b606081528360608201528385608083013760006080858301015260006080601f19601f87011683010190508360208301528260408301529594505050505056fea26469706673582212209d975ad64409100d0fbf89c3fb11ea8623926864a1a830267ddc5e840887336e64736f6c63430008140033",
  "linkReferences": {},
  "deployedLinkReferences": {}
}