{
  "_format": "hh-sol-artifact-1",
  "contractName": "HashRush",
  "sourceName": "contracts/HashRush.sol",
  "abi": [
    {
      "inputs": [
        {
          "internalType": "address",
          "name": "_usdcToken",
          "type": "address"
        }
      ],
      "stateMutability": "nonpayable",
      "type": "constructor"
    },
    {
      "inputs": [
        {
          "internalType": "address",
          "name": "owner",
          "type": "address"
        }
      ],
      "name": "OwnableInvalidOwner",
      "type": "error"
    },
    {
      "inputs": [
        {
          "internalType": "address",
          "name": "account",
          "type": "address"
        }
      ],
      "name": "OwnableUnauthorizedAccount",
      "type": "error"
    },
    {
      "inputs": [],
      "name": "ReentrancyGuardReentrantCall",
      "type": "error"
    },
    {
      "anonymous": false,
      "inputs": [
        {
          "indexed": true,
          "internalType": "address",
          "name": "funder",
          "type": "address"
        },
        {
          "indexed": false,
          "internalType": "uint256",
          "name": "amount",
          "type": "uint256"
        }
      ],
      "name": "Funded",
      "type": "event"
    },
    {
      "anonymous": false,
      "inputs": [
        {
          "indexed": true,
          "internalType": "address",
          "name": "previousOwner",
          "type": "address"
        },
        {
          "indexed": true,
          "internalType": "address",
          "name": "newOwner",
          "type": "address"
        }
      ],
      "name": "OwnershipTransferred",
      "type": "event"
    },
    {
      "anonymous": false,
      "inputs": [
        {
          "indexed": true,
          "internalType": "address",
          "name": "user",
          "type": "address"
        },
        {
          "indexed": false,
          "internalType": "uint256",
          "name": "amount",
          "type": "uint256"
        },
        {
          "indexed": false,
          "internalType": "uint256",
          "name": "timestamp",
          "type": "uint256"
        }
      ],
      "name": "Redeemed",
      "type": "event"
    },
    {
      "anonymous": false,
      "inputs": [
        {
          "indexed": false,
          "internalType": "uint256",
          "name": "oldAmount",
          "type": "uint256"
        },
        {
          "indexed": false,
          "internalType": "uint256",
          "name": "newAmount",
          "type": "uint256"
        }
      ],
      "name": "RewardAmountUpdated",
      "type": "event"
    },
    {
      "anonymous": false,
      "inputs": [
        {
          "indexed": true,
          "internalType": "address",
          "name": "owner",
          "type": "address"
        },
        {
          "indexed": false,
          "internalType": "uint256",
          "name": "amount",
          "type": "uint256"
        }
      ],
      "name": "Withdrawn",
      "type": "event"
    },
    {
      "inputs": [
        {
          "internalType": "address",
          "name": "user",
          "type": "address"
        }
      ],
      "name": "canRedeem",
      "outputs": [
        {
          "internalType": "bool",
          "name": "",
          "type": "bool"
        },
        {
          "internalType": "string",
          "name": "",
          "type": "string"
        }
      ],
      "stateMutability": "view",
      "type": "function"
    },
    {
      "inputs": [],
      "name": "getPoolBalance",
      "outputs": [
        {
          "internalType": "uint256",
          "name": "",
          "type": "uint256"
        }
      ],
      "stateMutability": "view",
      "type": "function"
    },
    {
      "inputs": [
        {
          "internalType": "address",
          "name": "user",
          "type": "address"
        }
      ],
      "name": "getRemainingCooldown",
      "outputs": [
        {
          "internalType": "uint256",
          "name": "",
          "type": "uint256"
        }
      ],
      "stateMutability": "view",
      "type": "function"
    },
    {
      "inputs": [
        {
          "internalType": "address",
          "name": "",
          "type": "address"
        }
      ],
      "name": "lastRedeemTime",
      "outputs": [
        {
          "internalType": "uint256",
          "name": "",
          "type": "uint256"
        }
      ],
      "stateMutability": "view",
      "type": "function"
    },
    {
      "inputs": [],
      "name": "minHpRequired",
      "outputs": [
        {
          "internalType": "uint256",
          "name": "",
          "type": "uint256"
        }
      ],
      "stateMutability": "view",
      "type": "function"
    },
    {
      "inputs": [],
      "name": "owner",
      "outputs": [
        {
          "internalType": "address",
          "name": "",
          "type": "address"
        }
      ],
      "stateMutability": "view",
      "type": "function"
    },
    {
      "inputs": [
        {
          "internalType": "uint256",
          "name": "hpAmount",
          "type": "uint256"
        }
      ],
      "name": "redeem",
      "outputs": [],
      "stateMutability": "nonpayable",
      "type": "function"
    },
    {
      "inputs": [],
      "name": "redeemCooldown",
      "outputs": [
        {
          "internalType": "uint256",
          "name": "",
          "type": "uint256"
        }
      ],
      "stateMutability": "view",
      "type": "function"
    },
    {
      "inputs": [],
      "name": "renounceOwnership",
      "outputs": [],
      "stateMutability": "nonpayable",
      "type": "function"
    },
    {
      "inputs": [],
      "name": "rewardAmount",
      "outputs": [
        {
          "internalType": "uint256",
          "name": "",
          "type": "uint256"
        }
      ],
      "stateMutability": "view",
      "type": "function"
    },
    {
      "inputs": [
        {
          "internalType": "uint256",
          "name": "_cooldown",
          "type": "uint256"
        }
      ],
      "name": "setCooldown",
      "outputs": [],
      "stateMutability": "nonpayable",
      "type": "function"
    },
    {
      "inputs": [
        {
          "internalType": "uint256",
          "name": "_minHp",
          "type": "uint256"
        }
      ],
      "name": "setMinHpRequired",
      "outputs": [],
      "stateMutability": "nonpayable",
      "type": "function"
    },
    {
      "inputs": [
        {
          "internalType": "uint256",
          "name": "_amount",
          "type": "uint256"
        }
      ],
      "name": "setRewardAmount",
      "outputs": [],
      "stateMutability": "nonpayable",
      "type": "function"
    },
    {
      "inputs": [
        {
          "internalType": "address",
          "name": "",
          "type": "address"
        }
      ],
      "name": "totalClaimed",
      "outputs": [
        {
          "internalType": "uint256",
          "name": "",
          "type": "uint256"
        }
      ],
      "stateMutability": "view",
      "type": "function"
    },
    {
      "inputs": [
        {
          "internalType": "address",
          "name": "newOwner",
          "type": "address"
        }
      ],
      "name": "transferOwnership",
      "outputs": [],
      "stateMutability": "nonpayable",
      "type": "function"
    },
    {
      "inputs": [],
      "name": "usdcToken",
      "outputs": [
        {
          "internalType": "contract IERC20",
          "name": "",
          "type": "address"
        }
      ],
      "stateMutability": "view",
      "type": "function"
    },
    {
      "inputs": [],
      "name": "withdrawETH",
      "outputs": [],
      "stateMutability": "nonpayable",
      "type": "function"
    },
    {
      "inputs": [
        {
          "internalType": "uint256",
          "name": "amount",
          "type": "uint256"
        }
      ],
      "name": "withdrawUSDC",
      "outputs": [],
      "stateMutability": "nonpayable",
      "type": "function"
    },
    {
      "stateMutability": "payable",
      "type": "receive"
    }
  ],
  "bytecode": "0x60a06040526127106002556113886003556201518060045534801561002357600080fd5b50604051610fd3380380610fd3833981016040819052610042916100d7565b338061006857604051631e4fbdf760e01b81526000600482015260240160405180910390fd5b61007181610087565b50600180556001600160a01b0316608052610107565b600080546001600160a01b038381166001600160a01b0319831681178455604051919092169283917f8be0079c531659141344cd1fd0a4f28419497f9722a3daafe3b4186f6b6457e09190a35050565b6000602082840312156100e957600080fd5b81516001600160a01b038116811461010057600080fd5b9392505050565b608051610e8761014c600039600081816101600152818161043001528181610589015281816106cc015281816107e50152818161090401526109c00152610e876000f3fe60806040526004361061010d5760003560e01c8063c1ce343811610095578063e086e5ec11610064578063e086e5ec1461031e578063e6f3e00414610333578063ef5d9ae814610353578063f2fde38b14610380578063f7b2a7be146103a057600080fd5b8063c1ce34381461029b578063ce0ada68146102b1578063db006a75146102de578063db81f99b146102fe57600080fd5b80637b38b34d116100dc5780637b38b34d146102045780638da5cb5b14610228578063a54d26dd14610246578063a8a65a7814610266578063abd70aa21461028657600080fd5b806311eac8551461014e578063151535b91461019f5780634fc3f41a146101cd578063715018a6146101ef57600080fd5b366101495760405134815233907f5af8184bef8e4b45eb9f6ed7734d04da38ced226495548f46e0c8ff8d7d9a5249060200160405180910390a2005b600080fd5b34801561015a57600080fd5b506101827f000000000000000000000000000000000000000000000000000000000000000081565b6040516001600160a01b0390911681526020015b60405180910390f35b3480156101ab57600080fd5b506101bf6101ba366004610d39565b6103b6565b604051610196929190610d69565b3480156101d957600080fd5b506101ed6101e8366004610dc1565b6104fa565b005b3480156101fb57600080fd5b506101ed610507565b34801561021057600080fd5b5061021a60035481565b604051908152602001610196565b34801561023457600080fd5b506000546001600160a01b0316610182565b34801561025257600080fd5b506101ed610261366004610dc1565b61051b565b34801561027257600080fd5b506101ed610281366004610dc1565b610528565b34801561029257600080fd5b5061021a610571565b3480156102a757600080fd5b5061021a60045481565b3480156102bd57600080fd5b5061021a6102cc366004610d39565b60056020526000908152604090205481565b3480156102ea57600080fd5b506101ed6102f9366004610dc1565b610601565b34801561030a57600080fd5b506101ed610319366004610dc1565b6108e5565b34801561032a57600080fd5b506101ed610b03565b34801561033f57600080fd5b5061021a61034e366004610d39565b610beb565b34801561035f57600080fd5b5061021a61036e366004610d39565b60066020526000908152604090205481565b34801561038c57600080fd5b506101ed61039b366004610d39565b610c57565b3480156103ac57600080fd5b5061021a60025481565b6004546001600160a01b03821660009081526005602052604081205490916060916103e19190610df0565b42101561041857505060408051808201909152600f81526e436f6f6c646f776e2061637469766560881b6020820152600092909150565b6002546040516370a0823160e01b81523060048201527f00000000000000000000000000000000000000000000000000000000000000006001600160a01b0316906370a0823190602401602060405180830381865afa15801561047f573d6000803e3d6000fd5b505050506040513d601f19601f820116820180604052508101906104a39190610e03565b10156104d457505060408051808201909152600a815269506f6f6c20656d70747960b01b6020820152600092909150565b5050604080518082019091526005815264526561647960d81b6020820152600192909150565b610502610c92565b600455565b61050f610c92565b6105196000610cbf565b565b610523610c92565b600355565b610530610c92565b60025460408051918252602082018390527ff0d37c3ae852021ac329281f604b658691cbfa6b9e9c22909f06b64a8ce87c94910160405180910390a1600255565b6040516370a0823160e01b81523060048201526000907f00000000000000000000000000000000000000000000000000000000000000006001600160a01b0316906370a0823190602401602060405180830381865afa1580156105d8573d6000803e3d6000fd5b505050506040513d601f19601f820116820180604052508101906105fc9190610e03565b905090565b610609610d0f565b6003548110156106525760405162461bcd60e51b815260206004820152600f60248201526e0496e73756666696369656e7420485608c1b60448201526064015b60405180910390fd5b6004543360009081526005602052604090205461066f9190610df0565b4210156106b45760405162461bcd60e51b815260206004820152601360248201527210dbdbdb191bdddb881b9bdd081c185cdcd959606a1b6044820152606401610649565b6002546040516370a0823160e01b81523060048201527f00000000000000000000000000000000000000000000000000000000000000006001600160a01b0316906370a0823190602401602060405180830381865afa15801561071b573d6000803e3d6000fd5b505050506040513d601f19601f8201168201806040525081019061073f9190610e03565b101561078d5760405162461bcd60e51b815260206004820152601d60248201527f496e73756666696369656e7420636f6e74726163742062616c616e63650000006044820152606401610649565b336000908152600560209081526040808320429055600254600690925282208054919290916107bd908490610df0565b909155505060025460405163a9059cbb60e01b815233600482015260248101919091526000907f00000000000000000000000000000000000000000000000000000000000000006001600160a01b03169063a9059cbb906044016020604051808303816000875af1158015610836573d6000803e3d6000fd5b505050506040513d601f19601f8201168201806040525081019061085a9190610e1c565b90508061089b5760405162461bcd60e51b815260206004820152600f60248201526e151c985b9cd9995c8819985a5b1959608a1b6044820152606401610649565b6002546040805191825242602083015233917ff3a670cd3af7d64b488926880889d08a8585a138ff455227af6737339a1ec262910160405180910390a2506108e260018055565b50565b6108ed610c92565b6040516370a0823160e01b815230600482015281907f00000000000000000000000000000000000000000000000000000000000000006001600160a01b0316906370a0823190602401602060405180830381865afa158015610953573d6000803e3d6000fd5b505050506040513d601f19601f820116820180604052508101906109779190610e03565b10156109bc5760405162461bcd60e51b8152602060048201526014602482015273496e73756666696369656e742062616c616e636560601b6044820152606401610649565b60007f00000000000000000000000000000000000000000000000000000000000000006001600160a01b031663a9059cbb6109ff6000546001600160a01b031690565b6040516001600160e01b031960e084901b1681526001600160a01b039091166004820152602481018590526044016020604051808303816000875af1158015610a4c573d6000803e3d6000fd5b505050506040513d601f19601f82011682018060405250810190610a709190610e1c565b905080610ab15760405162461bcd60e51b815260206004820152600f60248201526e15da5d1a191c985dc819985a5b1959608a1b6044820152606401610649565b6000546001600160a01b03166001600160a01b03167f7084f5476618d8e60b11ef0d7d3f06914655adb8793e28ff7f018d4c76d505d583604051610af791815260200190565b60405180910390a25050565b610b0b610c92565b4780610b4e5760405162461bcd60e51b81526020600482015260126024820152714e6f2045544820746f20776974686472617760701b6044820152606401610649565b600080546040516001600160a01b039091169083908381818185875af1925050503d8060008114610b9b576040519150601f19603f3d011682016040523d82523d6000602084013e610ba0565b606091505b5050905080610be75760405162461bcd60e51b8152602060048201526013602482015272115512081dda5d1a191c985dc819985a5b1959606a1b6044820152606401610649565b5050565b6004546001600160a01b0382166000908152600560205260408120549091610c1291610df0565b4210610c2057506000919050565b6004546001600160a01b0383166000908152600560205260409020544291610c4791610df0565b610c519190610e3e565b92915050565b610c5f610c92565b6001600160a01b038116610c8957604051631e4fbdf760e01b815260006004820152602401610649565b6108e281610cbf565b6000546001600160a01b031633146105195760405163118cdaa760e01b8152336004820152602401610649565b600080546001600160a01b038381166001600160a01b0319831681178455604051919092169283917f8be0079c531659141344cd1fd0a4f28419497f9722a3daafe3b4186f6b6457e09190a35050565b600260015403610d3257604051633ee5aeb560e01b815260040160405180910390fd5b6002600155565b600060208284031215610d4b57600080fd5b81356001600160a01b0381168114610d6257600080fd5b9392505050565b821515815260006020604081840152835180604085015260005b81811015610d9f57858101830151858201606001528201610d83565b506000606082860101526060601f19601f830116850101925050509392505050565b600060208284031215610dd357600080fd5b5035919050565b634e487b7160e01b600052601160045260246000fd5b80820180821115610c5157610c51610dda565b600060208284031215610e1557600080fd5b5051919050565b600060208284031215610e2e57600080fd5b81518015158114610d6257600080fd5b81810381811115610c5157610c51610dda56fea264697066735822122019d65979a92cb4caf102d8d5938fd60f1a4a49b40162cb92a06b3b92da02476064736f6c63430008140033",
  "linkReferences": {},
  "deployedLinkReferences": {}
}