{
  "_format": "hh-sol-artifact-1",
  "contractName": "HashRush",
  "sourceName": "contracts/HashRush.sol",
  "abi": [
    {
      "inputs": [
        {
          "internalType": "address",
          "name": "_usdcToken",
          "type": "address"
        }
      ],
      "stateMutability": "nonpayable",
      "type": "constructor"
    },
    {
      "inputs": [
        {
          "internalType": "address",
          "name": "owner",
          "type": "address"
        }
      ],
      "name": "OwnableInvalidOwner",
      "type": "error"
    },
    {
      "inputs": [
        {
          "internalType": "address",
          "name": "account",
          "type": "address"
        }
      ],
      "name": "OwnableUnauthorizedAccount",
      "type": "error"
    },
    {
      "inputs": [],
      "name": "ReentrancyGuardReentrantCall",
      "type": "error"
    },
    {
      "anonymous": false,
      "inputs": [
        {
          "indexed": true,
          "internalType": "address",
          "name": "funder",
          "type": "address"
        },
        {
          "indexed": false,
          "internalType": "uint256",
          "name": "amount",
          "type": "uint256"
        }
      ],
      "name": "Funded",
      "type": "event"
    },
    {
      "anonymous": false,
      "inputs": [
        {
          "indexed": true,
          "internalType": "address",
          "name": "user",
          "type": "address"
        },
        {
          "indexed": false,
          "internalType": "string",
          "name": "itemId",
          "type": "string"
        },
        {
          "indexed": false,
          "internalType": "uint256",
          "name": "amount",
          "type": "uint256"
        }
      ],
      "name": "HardwarePurchased",
      "type": "event"
    },
    {
      "anonymous": false,
      "inputs": [
        {
          "indexed": true,
          "internalType": "address",
          "name": "previousOwner",
          "type": "address"
        },
        {
          "indexed": true,
          "internalType": "address",
          "name": "newOwner",
          "type": "address"
        }
      ],
      "name": "OwnershipTransferred",
      "type": "event"
    },
    {
      "anonymous": false,
      "inputs": [
        {
          "indexed": true,
          "internalType": "address",
          "name": "user",
          "type": "address"
        },
        {
          "indexed": false,
          "internalType": "uint256",
          "name": "hpAmount",
          "type": "uint256"
        },
        {
          "indexed": false,
          "internalType": "uint256",
          "name": "usdcAmount",
          "type": "uint256"
        },
        {
          "indexed": false,
          "internalType": "uint256",
          "name": "timestamp",
          "type": "uint256"
        }
      ],
      "name": "Redeemed",
      "type": "event"
    },
    {
      "anonymous": false,
      "inputs": [
        {
          "indexed": false,
          "internalType": "uint256",
          "name": "oldAmount",
          "type": "uint256"
        },
        {
          "indexed": false,
          "internalType": "uint256",
          "name": "newAmount",
          "type": "uint256"
        }
      ],
      "name": "RewardAmountUpdated",
      "type": "event"
    },
    {
      "anonymous": false,
      "inputs": [
        {
          "indexed": true,
          "internalType": "address",
          "name": "owner",
          "type": "address"
        },
        {
          "indexed": false,
          "internalType": "uint256",
          "name": "amount",
          "type": "uint256"
        }
      ],
      "name": "Withdrawn",
      "type": "event"
    },
    {
      "inputs": [
        {
          "internalType": "string",
          "name": "itemId",
          "type": "string"
        }
      ],
      "name": "buyHardware",
      "outputs": [],
      "stateMutability": "payable",
      "type": "function"
    },
    {
      "inputs": [
        {
          "internalType": "address",
          "name": "user",
          "type": "address"
        }
      ],
      "name": "canRedeem",
      "outputs": [
        {
          "internalType": "bool",
          "name": "",
          "type": "bool"
        },
        {
          "internalType": "string",
          "name": "",
          "type": "string"
        }
      ],
      "stateMutability": "view",
      "type": "function"
    },
    {
      "inputs": [
        {
          "internalType": "string",
          "name": "itemId",
          "type": "string"
        }
      ],
      "name": "getHardwarePrice",
      "outputs": [
        {
          "internalType": "uint256",
          "name": "",
          "type": "uint256"
        }
      ],
      "stateMutability": "view",
      "type": "function"
    },
    {
      "inputs": [],
      "name": "getPoolBalance",
      "outputs": [
        {
          "internalType": "uint256",
          "name": "",
          "type": "uint256"
        }
      ],
      "stateMutability": "view",
      "type": "function"
    },
    {
      "inputs": [
        {
          "internalType": "address",
          "name": "user",
          "type": "address"
        }
      ],
      "name": "getRemainingCooldown",
      "outputs": [
        {
          "internalType": "uint256",
          "name": "",
          "type": "uint256"
        }
      ],
      "stateMutability": "view",
      "type": "function"
    },
    {
      "inputs": [
        {
          "internalType": "string",
          "name": "",
          "type": "string"
        }
      ],
      "name": "hardwarePrices",
      "outputs": [
        {
          "internalType": "uint256",
          "name": "",
          "type": "uint256"
        }
      ],
      "stateMutability": "view",
      "type": "function"
    },
    {
      "inputs": [
        {
          "internalType": "address",
          "name": "",
          "type": "address"
        }
      ],
      "name": "lastRedeemTime",
      "outputs": [
        {
          "internalType": "uint256",
          "name": "",
          "type": "uint256"
        }
      ],
      "stateMutability": "view",
      "type": "function"
    },
    {
      "inputs": [],
      "name": "minHpRequired",
      "outputs": [
        {
          "internalType": "uint256",
          "name": "",
          "type": "uint256"
        }
      ],
      "stateMutability": "view",
      "type": "function"
    },
    {
      "inputs": [],
      "name": "owner",
      "outputs": [
        {
          "internalType": "address",
          "name": "",
          "type": "address"
        }
      ],
      "stateMutability": "view",
      "type": "function"
    },
    {
      "inputs": [
        {
          "internalType": "uint256",
          "name": "hpAmount",
          "type": "uint256"
        }
      ],
      "name": "redeem",
      "outputs": [],
      "stateMutability": "nonpayable",
      "type": "function"
    },
    {
      "inputs": [],
      "name": "redeemCooldown",
      "outputs": [
        {
          "internalType": "uint256",
          "name": "",
          "type": "uint256"
        }
      ],
      "stateMutability": "view",
      "type": "function"
    },
    {
      "inputs": [],
      "name": "renounceOwnership",
      "outputs": [],
      "stateMutability": "nonpayable",
      "type": "function"
    },
    {
      "inputs": [],
      "name": "rewardAmount",
      "outputs": [
        {
          "internalType": "uint256",
          "name": "",
          "type": "uint256"
        }
      ],
      "stateMutability": "view",
      "type": "function"
    },
    {
      "inputs": [
        {
          "internalType": "uint256",
          "name": "_cooldown",
          "type": "uint256"
        }
      ],
      "name": "setCooldown",
      "outputs": [],
      "stateMutability": "nonpayable",
      "type": "function"
    },
    {
      "inputs": [
        {
          "internalType": "string",
          "name": "itemId",
          "type": "string"
        },
        {
          "internalType": "uint256",
          "name": "price",
          "type": "uint256"
        }
      ],
      "name": "setHardwarePrice",
      "outputs": [],
      "stateMutability": "nonpayable",
      "type": "function"
    },
    {
      "inputs": [
        {
          "internalType": "uint256",
          "name": "_minHp",
          "type": "uint256"
        }
      ],
      "name": "setMinHpRequired",
      "outputs": [],
      "stateMutability": "nonpayable",
      "type": "function"
    },
    {
      "inputs": [
        {
          "internalType": "uint256",
          "name": "_amount",
          "type": "uint256"
        }
      ],
      "name": "setRewardAmount",
      "outputs": [],
      "stateMutability": "nonpayable",
      "type": "function"
    },
    {
      "inputs": [
        {
          "internalType": "address",
          "name": "",
          "type": "address"
        }
      ],
      "name": "totalClaimed",
      "outputs": [
        {
          "internalType": "uint256",
          "name": "",
          "type": "uint256"
        }
      ],
      "stateMutability": "view",
      "type": "function"
    },
    {
      "inputs": [
        {
          "internalType": "address",
          "name": "",
          "type": "address"
        }
      ],
      "name": "totalHardwareSpent",
      "outputs": [
        {
          "internalType": "uint256",
          "name": "",
          "type": "uint256"
        }
      ],
      "stateMutability": "view",
      "type": "function"
    },
    {
      "inputs": [
        {
          "internalType": "address",
          "name": "newOwner",
          "type": "address"
        }
      ],
      "name": "transferOwnership",
      "outputs": [],
      "stateMutability": "nonpayable",
      "type": "function"
    },
    {
      "inputs": [],
      "name": "usdcToken",
      "outputs": [
        {
          "internalType": "contract IERC20",
          "name": "",
          "type": "address"
        }
      ],
      "stateMutability": "view",
      "type": "function"
    },
    {
      "inputs": [],
      "name": "withdrawETH",
      "outputs": [],
      "stateMutability": "nonpayable",
      "type": "function"
    },
    {
      "inputs": [
        {
          "internalType": "uint256",
          "name": "amount",
          "type": "uint256"
        }
      ],
      "name": "withdrawUSDC",
      "outputs": [],
      "stateMutability": "nonpayable",
      "type": "function"
    },
    {
      "stateMutability": "payable",
      "type": "receive"
    }
  ],
  "bytecode": "0x60a0604052620186a06002556103e86003556201518060045534801561002457600080fd5b5060405161156c38038061156c83398101604081905261004391610180565b338061006957604051631e4fbdf760e01b81526000600482015260240160405180910390fd5b61007281610130565b50600180556001600160a01b0316608052604080516639ba30b93a32b960c91b815260086007808301829052835192839003602790810184206601c6bf52634000905564747572626f60d81b845260058401839052845193849003602501842066038d7ea4c680009055636661726d60e01b8452600484018390528451938490036024018420660aa87bee5380009055667175616e74756d60c81b84529083019190915291519081900390910190206611c37937e0800090556101b0565b600080546001600160a01b038381166001600160a01b0319831681178455604051919092169283917f8be0079c531659141344cd1fd0a4f28419497f9722a3daafe3b4186f6b6457e09190a35050565b60006020828403121561019257600080fd5b81516001600160a01b03811681146101a957600080fd5b9392505050565b6080516113776101f5600039600081816101970152818161051f015281816106a4015281816108170152818161093001528181610a580152610b1401526113776000f3fe6080604052600436106101445760003560e01c8063abd70aa2116100b6578063e086e5ec1161006f578063e086e5ec146103fa578063e6f3e0041461040f578063e78f95a81461042f578063ef5d9ae814610442578063f2fde38b1461046f578063f7b2a7be1461048f57600080fd5b8063abd70aa214610342578063c06d746414610357578063c1ce343814610377578063ce0ada681461038d578063db006a75146103ba578063db81f99b146103da57600080fd5b80635fcd4a5d116101085780635fcd4a5d1461028c578063715018a6146102b95780637b38b34d146102ce5780638da5cb5b146102e4578063a54d26dd14610302578063a8a65a781461032257600080fd5b806311eac85514610185578063151535b9146101d65780632b59cc34146102045780634523fc04146102325780634fc3f41a1461026a57600080fd5b366101805760405134815233907f5af8184bef8e4b45eb9f6ed7734d04da38ced226495548f46e0c8ff8d7d9a5249060200160405180910390a2005b600080fd5b34801561019157600080fd5b506101b97f000000000000000000000000000000000000000000000000000000000000000081565b6040516001600160a01b0390911681526020015b60405180910390f35b3480156101e257600080fd5b506101f66101f1366004611042565b6104a5565b6040516101cd929190611072565b34801561021057600080fd5b5061022461021f366004611113565b6105e9565b6040519081526020016101cd565b34801561023e57600080fd5b5061022461024d36600461116b565b805160208183018101805160088252928201919093012091525481565b34801561027657600080fd5b5061028a61028536600461121c565b610615565b005b34801561029857600080fd5b506102246102a7366004611042565b60076020526000908152604090205481565b3480156102c557600080fd5b5061028a610622565b3480156102da57600080fd5b5061022460035481565b3480156102f057600080fd5b506000546001600160a01b03166101b9565b34801561030e57600080fd5b5061028a61031d36600461121c565b610636565b34801561032e57600080fd5b5061028a61033d36600461121c565b610643565b34801561034e57600080fd5b5061022461068c565b34801561036357600080fd5b5061028a610372366004611235565b61071c565b34801561038357600080fd5b5061022460045481565b34801561039957600080fd5b506102246103a8366004611042565b60056020526000908152604090205481565b3480156103c657600080fd5b5061028a6103d536600461121c565b61074c565b3480156103e657600080fd5b5061028a6103f536600461121c565b610a39565b34801561040657600080fd5b5061028a610c57565b34801561041b57600080fd5b5061022461042a366004611042565b610d3f565b61028a61043d366004611113565b610da5565b34801561044e57600080fd5b5061022461045d366004611042565b60066020526000908152604090205481565b34801561047b57600080fd5b5061028a61048a366004611042565b610f60565b34801561049b57600080fd5b5061022460025481565b6004546001600160a01b03821660009081526005602052604081205490916060916104d09190611297565b42101561050757505060408051808201909152600f81526e436f6f6c646f776e2061637469766560881b6020820152600092909150565b6002546040516370a0823160e01b81523060048201527f00000000000000000000000000000000000000000000000000000000000000006001600160a01b0316906370a0823190602401602060405180830381865afa15801561056e573d6000803e3d6000fd5b505050506040513d601f19601f8201168201806040525081019061059291906112aa565b10156105c357505060408051808201909152600a815269506f6f6c20656d70747960b01b6020820152600092909150565b5050604080518082019091526005815264526561647960d81b6020820152600192909150565b6000600883836040516105fd9291906112c3565b90815260200160405180910390205490505b92915050565b61061d610f9b565b600455565b61062a610f9b565b6106346000610fc8565b565b61063e610f9b565b600355565b61064b610f9b565b60025460408051918252602082018390527ff0d37c3ae852021ac329281f604b658691cbfa6b9e9c22909f06b64a8ce87c94910160405180910390a1600255565b6040516370a0823160e01b81523060048201526000907f00000000000000000000000000000000000000000000000000000000000000006001600160a01b0316906370a0823190602401602060405180830381865afa1580156106f3573d6000803e3d6000fd5b505050506040513d601f19601f8201168201806040525081019061071791906112aa565b905090565b610724610f9b565b80600884846040516107379291906112c3565b90815260405190819003602001902055505050565b610754611018565b60035481101561079d5760405162461bcd60e51b815260206004820152600f60248201526e0496e73756666696369656e7420485608c1b60448201526064015b60405180910390fd5b600454336000908152600560205260409020546107ba9190611297565b4210156107ff5760405162461bcd60e51b815260206004820152601360248201527210dbdbdb191bdddb881b9bdd081c185cdcd959606a1b6044820152606401610794565b6002546040516370a0823160e01b81523060048201527f00000000000000000000000000000000000000000000000000000000000000006001600160a01b0316906370a0823190602401602060405180830381865afa158015610866573d6000803e3d6000fd5b505050506040513d601f19601f8201168201806040525081019061088a91906112aa565b10156108d85760405162461bcd60e51b815260206004820152601d60248201527f496e73756666696369656e7420636f6e74726163742062616c616e63650000006044820152606401610794565b33600090815260056020908152604080832042905560025460069092528220805491929091610908908490611297565b909155505060025460405163a9059cbb60e01b815233600482015260248101919091526000907f00000000000000000000000000000000000000000000000000000000000000006001600160a01b03169063a9059cbb906044016020604051808303816000875af1158015610981573d6000803e3d6000fd5b505050506040513d601f19601f820116820180604052508101906109a591906112d3565b9050806109e65760405162461bcd60e51b815260206004820152600f60248201526e151c985b9cd9995c8819985a5b1959608a1b6044820152606401610794565b600254604080518481526020810192909252429082015233907f484c40561359f3e3b8be9101897f8680aa82fbe1df9fd9038e0dbc62840326469060600160405180910390a250610a3660018055565b50565b610a41610f9b565b6040516370a0823160e01b815230600482015281907f00000000000000000000000000000000000000000000000000000000000000006001600160a01b0316906370a0823190602401602060405180830381865afa158015610aa7573d6000803e3d6000fd5b505050506040513d601f19601f82011682018060405250810190610acb91906112aa565b1015610b105760405162461bcd60e51b8152602060048201526014602482015273496e73756666696369656e742062616c616e636560601b6044820152606401610794565b60007f00000000000000000000000000000000000000000000000000000000000000006001600160a01b031663a9059cbb610b536000546001600160a01b031690565b6040516001600160e01b031960e084901b1681526001600160a01b039091166004820152602481018590526044016020604051808303816000875af1158015610ba0573d6000803e3d6000fd5b505050506040513d601f19601f82011682018060405250810190610bc491906112d3565b905080610c055760405162461bcd60e51b815260206004820152600f60248201526e15da5d1a191c985dc819985a5b1959608a1b6044820152606401610794565b6000546001600160a01b03166001600160a01b03167f7084f5476618d8e60b11ef0d7d3f06914655adb8793e28ff7f018d4c76d505d583604051610c4b91815260200190565b60405180910390a25050565b610c5f610f9b565b4780610ca25760405162461bcd60e51b81526020600482015260126024820152714e6f2045544820746f20776974686472617760701b6044820152606401610794565b600080546040516001600160a01b039091169083908381818185875af1925050503d8060008114610cef576040519150601f19603f3d011682016040523d82523d6000602084013e610cf4565b606091505b5050905080610d3b5760405162461bcd60e51b8152602060048201526013602482015272115512081dda5d1a191c985dc819985a5b1959606a1b6044820152606401610794565b5050565b6004546001600160a01b0382166000908152600560205260408120549091610d6691611297565b4210610d7457506000919050565b6004546001600160a01b0383166000908152600560205260409020544291610d9b91611297565b61060f91906112f5565b610dad611018565b600060088383604051610dc19291906112c3565b908152602001604051809103902054905060008111610e115760405162461bcd60e51b815260206004820152600c60248201526b496e76616c6964206974656d60a01b6044820152606401610794565b80341015610e545760405162461bcd60e51b815260206004820152601060248201526f092dce6eaccccd2c6d2cadce8408aa8960831b6044820152606401610794565b3360009081526007602052604081208054349290610e73908490611297565b909155505034811015610f1157600033610e8d83346112f5565b604051600081818185875af1925050503d8060008114610ec9576040519150601f19603f3d011682016040523d82523d6000602084013e610ece565b606091505b5050905080610f0f5760405162461bcd60e51b815260206004820152600d60248201526c1499599d5b990819985a5b1959609a1b6044820152606401610794565b505b336001600160a01b03167f711a400b083aebb2e9da7ea74f6191442942223fa318b9015d98d8f4112572c5848484604051610f4e93929190611308565b60405180910390a250610d3b60018055565b610f68610f9b565b6001600160a01b038116610f9257604051631e4fbdf760e01b815260006004820152602401610794565b610a3681610fc8565b6000546001600160a01b031633146106345760405163118cdaa760e01b8152336004820152602401610794565b600080546001600160a01b038381166001600160a01b0319831681178455604051919092169283917f8be0079c531659141344cd1fd0a4f28419497f9722a3daafe3b4186f6b6457e09190a35050565b60026001540361103b57604051633ee5aeb560e01b815260040160405180910390fd5b6002600155565b60006020828403121561105457600080fd5b81356001600160a01b038116811461106b57600080fd5b9392505050565b821515815260006020604081840152835180604085015260005b818110156110a85785810183015185820160600152820161108c565b506000606082860101526060601f19601f830116850101925050509392505050565b60008083601f8401126110dc57600080fd5b50813567ffffffffffffffff8111156110f457600080fd5b60208301915083602082850101111561110c57600080fd5b9250929050565b6000806020838503121561112657600080fd5b823567ffffffffffffffff81111561113d57600080fd5b611149858286016110ca565b90969095509350505050565b634e487b7160e01b600052604160045260246000fd5b60006020828403121561117d57600080fd5b813567ffffffffffffffff8082111561119557600080fd5b818401915084601f8301126111a957600080fd5b8135818111156111bb576111bb611155565b604051601f8201601f19908116603f011681019083821181831017156111e3576111e3611155565b816040528281528760208487010111156111fc57600080fd5b826020860160208301376000928101602001929092525095945050505050565b60006020828403121561122e57600080fd5b5035919050565b60008060006040848603121561124a57600080fd5b833567ffffffffffffffff81111561126157600080fd5b61126d868287016110ca565b909790965060209590950135949350505050565b634e487b7160e01b600052601160045260246000fd5b8082018082111561060f5761060f611281565b6000602082840312156112bc57600080fd5b5051919050565b8183823760009101908152919050565b6000602082840312156112e557600080fd5b8151801515811461106b57600080fd5b8181038181111561060f5761060f611281565b604081528260408201528284606083013760006060848301015260006060601f19601f860116830101905082602083015294935050505056fea2646970667358221220e178e2e28007e65285463078932d6220f398699ed5c63917849713dbc7133ba764736f6c63430008140033",
  "linkReferences": {},
  "deployedLinkReferences": {}
}