{
  "_format": "hh-sol-artifact-1",
  "contractName": "HashRush",
  "sourceName": "contracts/HashRush.sol",
  "abi": [
    {
      "inputs": [
        {
          "internalType": "address",
          "name": "_rewardToken",
          "type": "address"
        }
      ],
      "stateMutability": "nonpayable",
      "type": "constructor"
    },
    {
      "inputs": [
        {
          "internalType": "address",
          "name": "owner",
          "type": "address"
        }
      ],
      "name": "OwnableInvalidOwner",
      "type": "error"
    },
    {
      "inputs": [
        {
          "internalType": "address",
          "name": "account",
          "type": "address"
        }
      ],
      "name": "OwnableUnauthorizedAccount",
      "type": "error"
    },
    {
      "inputs": [],
      "name": "ReentrancyGuardReentrantCall",
      "type": "error"
    },
    {
      "anonymous": false,
      "inputs": [
        {
          "indexed": true,
          "internalType": "address",
          "name": "funder",
          "type": "address"
        },
        {
          "indexed": false,
          "internalType": "uint256",
          "name": "amount",
          "type": "uint256"
        }
      ],
      "name": "Funded",
      "type": "event"
    },
    {
      "anonymous": false,
      "inputs": [
        {
          "indexed": true,
          "internalType": "address",
          "name": "user",
          "type": "address"
        },
        {
          "indexed": false,
          "internalType": "string",
          "name": "itemId",
          "type": "string"
        },
        {
          "indexed": false,
          "internalType": "uint256",
          "name": "amount",
          "type": "uint256"
        },
        {
          "indexed": false,
          "internalType": "uint256",
          "name": "timestamp",
          "type": "uint256"
        }
      ],
      "name": "HardwarePurchased",
      "type": "event"
    },
    {
      "anonymous": false,
      "inputs": [
        {
          "indexed": true,
          "internalType": "address",
          "name": "previousOwner",
          "type": "address"
        },
        {
          "indexed": true,
          "internalType": "address",
          "name": "newOwner",
          "type": "address"
        }
      ],
      "name": "OwnershipTransferred",
      "type": "event"
    },
    {
      "anonymous": false,
      "inputs": [
        {
          "indexed": true,
          "internalType": "address",
          "name": "user",
          "type": "address"
        },
        {
          "indexed": false,
          "internalType": "uint256",
          "name": "amount",
          "type": "uint256"
        },
        {
          "indexed": false,
          "internalType": "uint256",
          "name": "totalClaimed",
          "type": "uint256"
        },
        {
          "indexed": false,
          "internalType": "uint256",
          "name": "timestamp",
          "type": "uint256"
        }
      ],
      "name": "PointsClaimed",
      "type": "event"
    },
    {
      "anonymous": false,
      "inputs": [
        {
          "indexed": false,
          "internalType": "uint256",
          "name": "oldAmount",
          "type": "uint256"
        },
        {
          "indexed": false,
          "internalType": "uint256",
          "name": "newAmount",
          "type": "uint256"
        }
      ],
      "name": "RewardAmountUpdated",
      "type": "event"
    },
    {
      "anonymous": false,
      "inputs": [
        {
          "indexed": true,
          "internalType": "address",
          "name": "user",
          "type": "address"
        },
        {
          "indexed": false,
          "internalType": "uint256",
          "name": "hpAmount",
          "type": "uint256"
        },
        {
          "indexed": false,
          "internalType": "uint256",
          "name": "rewardAmount",
          "type": "uint256"
        },
        {
          "indexed": false,
          "internalType": "uint256",
          "name": "timestamp",
          "type": "uint256"
        }
      ],
      "name": "RewardRedeemed",
      "type": "event"
    },
    {
      "anonymous": false,
      "inputs": [
        {
          "indexed": false,
          "internalType": "address",
          "name": "oldToken",
          "type": "address"
        },
        {
          "indexed": false,
          "internalType": "address",
          "name": "newToken",
          "type": "address"
        }
      ],
      "name": "RewardTokenUpdated",
      "type": "event"
    },
    {
      "anonymous": false,
      "inputs": [
        {
          "indexed": true,
          "internalType": "address",
          "name": "owner",
          "type": "address"
        },
        {
          "indexed": false,
          "internalType": "uint256",
          "name": "amount",
          "type": "uint256"
        }
      ],
      "name": "Withdrawn",
      "type": "event"
    },
    {
      "inputs": [
        {
          "internalType": "string",
          "name": "itemId",
          "type": "string"
        }
      ],
      "name": "buyHardware",
      "outputs": [],
      "stateMutability": "payable",
      "type": "function"
    },
    {
      "inputs": [
        {
          "internalType": "address",
          "name": "user",
          "type": "address"
        }
      ],
      "name": "canRedeem",
      "outputs": [
        {
          "internalType": "bool",
          "name": "",
          "type": "bool"
        },
        {
          "internalType": "string",
          "name": "",
          "type": "string"
        }
      ],
      "stateMutability": "view",
      "type": "function"
    },
    {
      "inputs": [
        {
          "internalType": "address",
          "name": "",
          "type": "address"
        }
      ],
      "name": "claimCount",
      "outputs": [
        {
          "internalType": "uint256",
          "name": "",
          "type": "uint256"
        }
      ],
      "stateMutability": "view",
      "type": "function"
    },
    {
      "inputs": [
        {
          "internalType": "uint256",
          "name": "amount",
          "type": "uint256"
        }
      ],
      "name": "claimPoints",
      "outputs": [],
      "stateMutability": "nonpayable",
      "type": "function"
    },
    {
      "inputs": [
        {
          "internalType": "string",
          "name": "itemId",
          "type": "string"
        }
      ],
      "name": "getHardwarePrice",
      "outputs": [
        {
          "internalType": "uint256",
          "name": "",
          "type": "uint256"
        }
      ],
      "stateMutability": "view",
      "type": "function"
    },
    {
      "inputs": [],
      "name": "getPoolBalance",
      "outputs": [
        {
          "internalType": "uint256",
          "name": "",
          "type": "uint256"
        }
      ],
      "stateMutability": "view",
      "type": "function"
    },
    {
      "inputs": [
        {
          "internalType": "address",
          "name": "user",
          "type": "address"
        }
      ],
      "name": "getRemainingCooldown",
      "outputs": [
        {
          "internalType": "uint256",
          "name": "",
          "type": "uint256"
        }
      ],
      "stateMutability": "view",
      "type": "function"
    },
    {
      "inputs": [
        {
          "internalType": "address",
          "name": "user",
          "type": "address"
        }
      ],
      "name": "getUserStats",
      "outputs": [
        {
          "internalType": "uint256",
          "name": "hpClaimed",
          "type": "uint256"
        },
        {
          "internalType": "uint256",
          "name": "rewardsClaimed",
          "type": "uint256"
        },
        {
          "internalType": "uint256",
          "name": "hardwareSpent",
          "type": "uint256"
        },
        {
          "internalType": "uint256",
          "name": "claims",
          "type": "uint256"
        }
      ],
      "stateMutability": "view",
      "type": "function"
    },
    {
      "inputs": [
        {
          "internalType": "string",
          "name": "",
          "type": "string"
        }
      ],
      "name": "hardwarePrices",
      "outputs": [
        {
          "internalType": "uint256",
          "name": "",
          "type": "uint256"
        }
      ],
      "stateMutability": "view",
      "type": "function"
    },
    {
      "inputs": [
        {
          "internalType": "address",
          "name": "",
          "type": "address"
        }
      ],
      "name": "lastRedeemTime",
      "outputs": [
        {
          "internalType": "uint256",
          "name": "",
          "type": "uint256"
        }
      ],
      "stateMutability": "view",
      "type": "function"
    },
    {
      "inputs": [],
      "name": "minHpRequired",
      "outputs": [
        {
          "internalType": "uint256",
          "name": "",
          "type": "uint256"
        }
      ],
      "stateMutability": "view",
      "type": "function"
    },
    {
      "inputs": [],
      "name": "owner",
      "outputs": [
        {
          "internalType": "address",
          "name": "",
          "type": "address"
        }
      ],
      "stateMutability": "view",
      "type": "function"
    },
    {
      "inputs": [],
      "name": "redeemCooldown",
      "outputs": [
        {
          "internalType": "uint256",
          "name": "",
          "type": "uint256"
        }
      ],
      "stateMutability": "view",
      "type": "function"
    },
    {
      "inputs": [
        {
          "internalType": "uint256",
          "name": "hpAmount",
          "type": "uint256"
        }
      ],
      "name": "redeemRewards",
      "outputs": [],
      "stateMutability": "nonpayable",
      "type": "function"
    },
    {
      "inputs": [],
      "name": "renounceOwnership",
      "outputs": [],
      "stateMutability": "nonpayable",
      "type": "function"
    },
    {
      "inputs": [],
      "name": "rewardAmount",
      "outputs": [
        {
          "internalType": "uint256",
          "name": "",
          "type": "uint256"
        }
      ],
      "stateMutability": "view",
      "type": "function"
    },
    {
      "inputs": [],
      "name": "rewardToken",
      "outputs": [
        {
          "internalType": "contract IERC20",
          "name": "",
          "type": "address"
        }
      ],
      "stateMutability": "view",
      "type": "function"
    },
    {
      "inputs": [
        {
          "internalType": "uint256",
          "name": "_cooldown",
          "type": "uint256"
        }
      ],
      "name": "setCooldown",
      "outputs": [],
      "stateMutability": "nonpayable",
      "type": "function"
    },
    {
      "inputs": [
        {
          "internalType": "string",
          "name": "itemId",
          "type": "string"
        },
        {
          "internalType": "uint256",
          "name": "price",
          "type": "uint256"
        }
      ],
      "name": "setHardwarePrice",
      "outputs": [],
      "stateMutability": "nonpayable",
      "type": "function"
    },
    {
      "inputs": [
        {
          "internalType": "uint256",
          "name": "_minHp",
          "type": "uint256"
        }
      ],
      "name": "setMinHpRequired",
      "outputs": [],
      "stateMutability": "nonpayable",
      "type": "function"
    },
    {
      "inputs": [
        {
          "internalType": "uint256",
          "name": "_amount",
          "type": "uint256"
        }
      ],
      "name": "setRewardAmount",
      "outputs": [],
      "stateMutability": "nonpayable",
      "type": "function"
    },
    {
      "inputs": [
        {
          "internalType": "address",
          "name": "_newToken",
          "type": "address"
        }
      ],
      "name": "setRewardToken",
      "outputs": [],
      "stateMutability": "nonpayable",
      "type": "function"
    },
    {
      "inputs": [
        {
          "internalType": "address",
          "name": "",
          "type": "address"
        }
      ],
      "name": "totalHardwareSpent",
      "outputs": [
        {
          "internalType": "uint256",
          "name": "",
          "type": "uint256"
        }
      ],
      "stateMutability": "view",
      "type": "function"
    },
    {
      "inputs": [
        {
          "internalType": "address",
          "name": "",
          "type": "address"
        }
      ],
      "name": "totalHpClaimed",
      "outputs": [
        {
          "internalType": "uint256",
          "name": "",
          "type": "uint256"
        }
      ],
      "stateMutability": "view",
      "type": "function"
    },
    {
      "inputs": [
        {
          "internalType": "address",
          "name": "",
          "type": "address"
        }
      ],
      "name": "totalRewardsClaimed",
      "outputs": [
        {
          "internalType": "uint256",
          "name": "",
          "type": "uint256"
        }
      ],
      "stateMutability": "view",
      "type": "function"
    },
    {
      "inputs": [
        {
          "internalType": "address",
          "name": "newOwner",
          "type": "address"
        }
      ],
      "name": "transferOwnership",
      "outputs": [],
      "stateMutability": "nonpayable",
      "type": "function"
    },
    {
      "inputs": [],
      "name": "withdrawETH",
      "outputs": [],
      "stateMutability": "nonpayable",
      "type": "function"
    },
    {
      "inputs": [
        {
          "internalType": "uint256",
          "name": "amount",
          "type": "uint256"
        }
      ],
      "name": "withdrawRewards",
      "outputs": [],
      "stateMutability": "nonpayable",
      "type": "function"
    },
    {
      "inputs": [
        {
          "internalType": "address",
          "name": "_token",
          "type": "address"
        },
        {
          "internalType": "uint256",
          "name": "amount",
          "type": "uint256"
        }
      ],
      "name": "withdrawToken",
      "outputs": [],
      "stateMutability": "nonpayable",
      "type": "function"
    },
    {
      "stateMutability": "payable",
      "type": "receive"
    }
  ],
  "bytecode": "0x6080604052620186a06003556103e86004556201518060055534801561002457600080fd5b5060405161188c38038061188c8339810160408190526100439161019f565b338061006957604051631e4fbdf760e01b81526000600482015260240160405180910390fd5b6100728161014f565b5060018055600280546001600160a01b0319166001600160a01b0383161790556040516639ba30b93a32b960c91b81526601c6bf5263400090600b906007019081526040519081900360200181209190915564747572626f60d81b815266038d7ea4c6800090600b9060050190815260405190819003602001812091909155636661726d60e01b8152660aa87bee53800090600b9060040190815260405190819003602001812091909155667175616e74756d60c81b81526611c37937e0800090600b9060070190815260405190819003602001902055506101cf565b600080546001600160a01b038381166001600160a01b0319831681178455604051919092169283917f8be0079c531659141344cd1fd0a4f28419497f9722a3daafe3b4186f6b6457e09190a35050565b6000602082840312156101b157600080fd5b81516001600160a01b03811681146101c857600080fd5b9392505050565b6116ae806101de6000396000f3fe6080604052600436106101c65760003560e01c80639342c8f4116100f7578063ce0ada6811610095578063f2fde38b11610064578063f2fde38b146105c1578063f6ce9004146105e1578063f7b2a7be1461060e578063f7c618c11461062457600080fd5b8063ce0ada681461054c578063e086e5ec14610579578063e6f3e0041461058e578063e78f95a8146105ae57600080fd5b8063a8a65a78116100d1578063a8a65a78146104e1578063abd70aa214610501578063c06d746414610516578063c1ce34381461053657600080fd5b80639342c8f4146104815780639e281a98146104a1578063a54d26dd146104c157600080fd5b80635fcd4a5d11610164578063715018a61161013e578063715018a6146104045780637b38b34d146104195780638aee81271461042f5780638da5cb5b1461044f57600080fd5b80635fcd4a5d1461037d57806360c02ed2146103aa57806369c12cb7146103d757600080fd5b80633ac795de116101a05780633ac795de1461028e5780634523fc04146102ae5780634e43603a146102e65780634fc3f41a1461035d57600080fd5b8063151535b9146102075780632b59cc341461023e57806335f11cc21461026c57600080fd5b366102025760405134815233907f5af8184bef8e4b45eb9f6ed7734d04da38ced226495548f46e0c8ff8d7d9a5249060200160405180910390a2005b600080fd5b34801561021357600080fd5b50610227610222366004611356565b610644565b604051610235929190611378565b60405180910390f35b34801561024a57600080fd5b5061025e610259366004611419565b61076c565b604051908152602001610235565b34801561027857600080fd5b5061028c61028736600461145b565b610798565b005b34801561029a57600080fd5b5061028c6102a936600461145b565b610a4b565b3480156102ba57600080fd5b5061025e6102c936600461148a565b8051602081830181018051600b8252928201919093012091525481565b3480156102f257600080fd5b5061033d610301366004611356565b6001600160a01b03166000908152600860209081526040808320546007835281842054600a845282852054600990945291909320549293909290565b604080519485526020850193909352918301526060820152608001610235565b34801561036957600080fd5b5061028c61037836600461145b565b610b2a565b34801561038957600080fd5b5061025e610398366004611356565b600a6020526000908152604090205481565b3480156103b657600080fd5b5061025e6103c5366004611356565b60086020526000908152604090205481565b3480156103e357600080fd5b5061025e6103f2366004611356565b60096020526000908152604090205481565b34801561041057600080fd5b5061028c610b37565b34801561042557600080fd5b5061025e60045481565b34801561043b57600080fd5b5061028c61044a366004611356565b610b4b565b34801561045b57600080fd5b506000546001600160a01b03165b6040516001600160a01b039091168152602001610235565b34801561048d57600080fd5b5061028c61049c36600461145b565b610c04565b3480156104ad57600080fd5b5061028c6104bc36600461153b565b610c73565b3480156104cd57600080fd5b5061028c6104dc36600461145b565b610e55565b3480156104ed57600080fd5b5061028c6104fc36600461145b565b610e62565b34801561050d57600080fd5b5061025e610eab565b34801561052257600080fd5b5061028c610531366004611565565b610f1d565b34801561054257600080fd5b5061025e60055481565b34801561055857600080fd5b5061025e610567366004611356565b60066020526000908152604090205481565b34801561058557600080fd5b5061028c610f4d565b34801561059a57600080fd5b5061025e6105a9366004611356565b611035565b61028c6105bc366004611419565b61109b565b3480156105cd57600080fd5b5061028c6105dc366004611356565b611258565b3480156105ed57600080fd5b5061025e6105fc366004611356565b60076020526000908152604090205481565b34801561061a57600080fd5b5061025e60035481565b34801561063057600080fd5b50600254610469906001600160a01b031681565b6005546001600160a01b038216600090815260066020526040812054909160609161066f91906115c7565b4210156106a657505060408051808201909152600f81526e436f6f6c646f776e2061637469766560881b6020820152600092909150565b6003546002546040516370a0823160e01b81523060048201526001600160a01b03909116906370a0823190602401602060405180830381865afa1580156106f1573d6000803e3d6000fd5b505050506040513d601f19601f8201168201806040525081019061071591906115da565b101561074657505060408051808201909152600a815269506f6f6c20656d70747960b01b6020820152600092909150565b5050604080518082019091526005815264526561647960d81b6020820152600192909150565b6000600b83836040516107809291906115f3565b90815260200160405180910390205490505b92915050565b6107a0611293565b6004548110156107e95760405162461bcd60e51b815260206004820152600f60248201526e0496e73756666696369656e7420485608c1b60448201526064015b60405180910390fd5b6005543360009081526006602052604090205461080691906115c7565b42101561084b5760405162461bcd60e51b815260206004820152601360248201527210dbdbdb191bdddb881b9bdd081c185cdcd959606a1b60448201526064016107e0565b6003546002546040516370a0823160e01b81523060048201526001600160a01b03909116906370a0823190602401602060405180830381865afa158015610896573d6000803e3d6000fd5b505050506040513d601f19601f820116820180604052508101906108ba91906115da565b10156109085760405162461bcd60e51b815260206004820152601d60248201527f496e73756666696369656e7420636f6e74726163742062616c616e636500000060448201526064016107e0565b336000908152600660209081526040808320429055600354600790925282208054919290916109389084906115c7565b909155505060025460035460405163a9059cbb60e01b815233600482015260248101919091526000916001600160a01b03169063a9059cbb906044016020604051808303816000875af1158015610993573d6000803e3d6000fd5b505050506040513d601f19601f820116820180604052508101906109b79190611603565b9050806109f85760405162461bcd60e51b815260206004820152600f60248201526e151c985b9cd9995c8819985a5b1959608a1b60448201526064016107e0565b600354604080518481526020810192909252429082015233907f3569089751b9afbf4110ebb01963d7909f9edff9dbf9730e2784f7d9bcb6ab739060600160405180910390a250610a4860018055565b50565b60008111610a905760405162461bcd60e51b81526020600482015260126024820152710416d6f756e74206d757374206265203e20360741b60448201526064016107e0565b3360009081526008602052604081208054839290610aaf9084906115c7565b9091555050336000908152600960205260408120805460019290610ad49084906115c7565b90915550503360008181526008602090815260409182902054825185815291820152428183015290517f380f3fa4f2c28f19c53cf86e5bbaa14a82d50d325c8e43853a34faae63abf9e09181900360600190a250565b610b326112bd565b600555565b610b3f6112bd565b610b4960006112ea565b565b610b536112bd565b6001600160a01b038116610b9b5760405162461bcd60e51b815260206004820152600f60248201526e496e76616c6964206164647265737360881b60448201526064016107e0565b600254604080516001600160a01b03928316815291831660208301527f906ff2422a6ffa134f2d7ccaffd446bc0c583a5cb6615749b4b2836942a5fea8910160405180910390a1600280546001600160a01b0319166001600160a01b0392909216919091179055565b610c0c6112bd565b6002546040516313c5035360e31b81526001600160a01b039091166004820152602481018290523090639e281a9890604401600060405180830381600087803b158015610c5857600080fd5b505af1158015610c6c573d6000803e3d6000fd5b5050505050565b610c7b6112bd565b6040516370a0823160e01b8152306004820152829082906001600160a01b038316906370a0823190602401602060405180830381865afa158015610cc3573d6000803e3d6000fd5b505050506040513d601f19601f82011682018060405250810190610ce791906115da565b1015610d2c5760405162461bcd60e51b8152602060048201526014602482015273496e73756666696369656e742062616c616e636560601b60448201526064016107e0565b6000816001600160a01b031663a9059cbb610d4f6000546001600160a01b031690565b6040516001600160e01b031960e084901b1681526001600160a01b039091166004820152602481018690526044016020604051808303816000875af1158015610d9c573d6000803e3d6000fd5b505050506040513d601f19601f82011682018060405250810190610dc09190611603565b905080610e015760405162461bcd60e51b815260206004820152600f60248201526e15da5d1a191c985dc819985a5b1959608a1b60448201526064016107e0565b6000546001600160a01b03166001600160a01b03167f7084f5476618d8e60b11ef0d7d3f06914655adb8793e28ff7f018d4c76d505d584604051610e4791815260200190565b60405180910390a250505050565b610e5d6112bd565b600455565b610e6a6112bd565b60035460408051918252602082018390527ff0d37c3ae852021ac329281f604b658691cbfa6b9e9c22909f06b64a8ce87c94910160405180910390a1600355565b6002546040516370a0823160e01b81523060048201526000916001600160a01b0316906370a0823190602401602060405180830381865afa158015610ef4573d6000803e3d6000fd5b505050506040513d601f19601f82011682018060405250810190610f1891906115da565b905090565b610f256112bd565b80600b8484604051610f389291906115f3565b90815260405190819003602001902055505050565b610f556112bd565b4780610f985760405162461bcd60e51b81526020600482015260126024820152714e6f2045544820746f20776974686472617760701b60448201526064016107e0565b600080546040516001600160a01b039091169083908381818185875af1925050503d8060008114610fe5576040519150601f19603f3d011682016040523d82523d6000602084013e610fea565b606091505b50509050806110315760405162461bcd60e51b8152602060048201526013602482015272115512081dda5d1a191c985dc819985a5b1959606a1b60448201526064016107e0565b5050565b6005546001600160a01b038216600090815260066020526040812054909161105c916115c7565b421061106a57506000919050565b6005546001600160a01b0383166000908152600660205260409020544291611091916115c7565b6107929190611625565b6110a3611293565b6000600b83836040516110b79291906115f3565b9081526020016040518091039020549050600081116111075760405162461bcd60e51b815260206004820152600c60248201526b496e76616c6964206974656d60a01b60448201526064016107e0565b8034101561114a5760405162461bcd60e51b815260206004820152601060248201526f092dce6eaccccd2c6d2cadce8408aa8960831b60448201526064016107e0565b336000908152600a6020526040812080548392906111699084906115c7565b909155505034811015611207576000336111838334611625565b604051600081818185875af1925050503d80600081146111bf576040519150601f19603f3d011682016040523d82523d6000602084013e6111c4565b606091505b50509050806112055760405162461bcd60e51b815260206004820152600d60248201526c1499599d5b990819985a5b1959609a1b60448201526064016107e0565b505b336001600160a01b03167f8e8b9ccdd7ae6c9073a9a8a9b3100345c122515e54d27cb8c84c17870ca7b393848484426040516112469493929190611638565b60405180910390a25061103160018055565b6112606112bd565b6001600160a01b03811661128a57604051631e4fbdf760e01b8152600060048201526024016107e0565b610a48816112ea565b6002600154036112b657604051633ee5aeb560e01b815260040160405180910390fd5b6002600155565b6000546001600160a01b03163314610b495760405163118cdaa760e01b81523360048201526024016107e0565b600080546001600160a01b038381166001600160a01b0319831681178455604051919092169283917f8be0079c531659141344cd1fd0a4f28419497f9722a3daafe3b4186f6b6457e09190a35050565b80356001600160a01b038116811461135157600080fd5b919050565b60006020828403121561136857600080fd5b6113718261133a565b9392505050565b821515815260006020604081840152835180604085015260005b818110156113ae57858101830151858201606001528201611392565b506000606082860101526060601f19601f830116850101925050509392505050565b60008083601f8401126113e257600080fd5b50813567ffffffffffffffff8111156113fa57600080fd5b60208301915083602082850101111561141257600080fd5b9250929050565b6000806020838503121561142c57600080fd5b823567ffffffffffffffff81111561144357600080fd5b61144f858286016113d0565b90969095509350505050565b60006020828403121561146d57600080fd5b5035919050565b634e487b7160e01b600052604160045260246000fd5b60006020828403121561149c57600080fd5b813567ffffffffffffffff808211156114b457600080fd5b818401915084601f8301126114c857600080fd5b8135818111156114da576114da611474565b604051601f8201601f19908116603f0116810190838211818310171561150257611502611474565b8160405282815287602084870101111561151b57600080fd5b826020860160208301376000928101602001929092525095945050505050565b6000806040838503121561154e57600080fd5b6115578361133a565b946020939093013593505050565b60008060006040848603121561157a57600080fd5b833567ffffffffffffffff81111561159157600080fd5b61159d868287016113d0565b909790965060209590950135949350505050565b634e487b7160e01b600052601160045260246000fd5b80820180821115610792576107926115b1565b6000602082840312156115ec57600080fd5b5051919050565b8183823760009101908152919050565b60006020828403121561161557600080fd5b8151801515811461137157600080fd5b81810381811115610792576107926115b1565b606081528360608201528385608083013760006080858301015260006080601f19601f87011683010190508360208301528260408301529594505050505056fea2646970667358221220f8c953ec70f899b64b9630c591ae2ae56c5550e1192045848735e1ab267fb91664736f6c63430008140033",
  "linkReferences": {},
  "deployedLinkReferences": {}
}